{
  "_format": "hh-sol-artifact-1",
  "contractName": "SELVA",
  "sourceName": "contracts/SELVA.sol",
  "abi": [
    {
      "inputs": [
        {
          "internalType": "uint256",
          "name": "initialSupply",
          "type": "uint256"
        },
        {
          "internalType": "address",
          "name": "owner_",
          "type": "address"
        }
      ],
      "stateMutability": "nonpayable",
      "type": "constructor"
    },
    {
      "inputs": [],
      "name": "ECDSAInvalidSignature",
      "type": "error"
    },
    {
      "inputs": [
        {
          "internalType": "uint256",
          "name": "length",
          "type": "uint256"
        }
      ],
      "name": "ECDSAInvalidSignatureLength",
      "type": "error"
    },
    {
      "inputs": [
        {
          "internalType": "bytes32",
          "name": "s",
          "type": "bytes32"
        }
      ],
      "name": "ECDSAInvalidSignatureS",
      "type": "error"
    },
    {
      "inputs": [
        {
          "internalType": "address",
          "name": "spender",
          "type": "address"
        },
        {
          "internalType": "uint256",
          "name": "allowance",
          "type": "uint256"
        },
        {
          "internalType": "uint256",
          "name": "needed",
          "type": "uint256"
        }
      ],
      "name": "ERC20InsufficientAllowance",
      "type": "error"
    },
    {
      "inputs": [
        {
          "internalType": "address",
          "name": "sender",
          "type": "address"
        },
        {
          "internalType": "uint256",
          "name": "balance",
          "type": "uint256"
        },
        {
          "internalType": "uint256",
          "name": "needed",
          "type": "uint256"
        }
      ],
      "name": "ERC20InsufficientBalance",
      "type": "error"
    },
    {
      "inputs": [
        {
          "internalType": "address",
          "name": "approver",
          "type": "address"
        }
      ],
      "name": "ERC20InvalidApprover",
      "type": "error"
    },
    {
      "inputs": [
        {
          "internalType": "address",
          "name": "receiver",
          "type": "address"
        }
      ],
      "name": "ERC20InvalidReceiver",
      "type": "error"
    },
    {
      "inputs": [
        {
          "internalType": "address",
          "name": "sender",
          "type": "address"
        }
      ],
      "name": "ERC20InvalidSender",
      "type": "error"
    },
    {
      "inputs": [
        {
          "internalType": "address",
          "name": "spender",
          "type": "address"
        }
      ],
      "name": "ERC20InvalidSpender",
      "type": "error"
    },
    {
      "inputs": [
        {
          "internalType": "uint256",
          "name": "deadline",
          "type": "uint256"
        }
      ],
      "name": "ERC2612ExpiredSignature",
      "type": "error"
    },
    {
      "inputs": [
        {
          "internalType": "address",
          "name": "signer",
          "type": "address"
        },
        {
          "internalType": "address",
          "name": "owner",
          "type": "address"
        }
      ],
      "name": "ERC2612InvalidSigner",
      "type": "error"
    },
    {
      "inputs": [
        {
          "internalType": "address",
          "name": "account",
          "type": "address"
        },
        {
          "internalType": "uint256",
          "name": "currentNonce",
          "type": "uint256"
        }
      ],
      "name": "InvalidAccountNonce",
      "type": "error"
    },
    {
      "inputs": [],
      "name": "InvalidShortString",
      "type": "error"
    },
    {
      "inputs": [
        {
          "internalType": "address",
          "name": "owner",
          "type": "address"
        }
      ],
      "name": "OwnableInvalidOwner",
      "type": "error"
    },
    {
      "inputs": [
        {
          "internalType": "address",
          "name": "account",
          "type": "address"
        }
      ],
      "name": "OwnableUnauthorizedAccount",
      "type": "error"
    },
    {
      "inputs": [
        {
          "internalType": "string",
          "name": "str",
          "type": "string"
        }
      ],
      "name": "StringTooLong",
      "type": "error"
    },
    {
      "anonymous": false,
      "inputs": [
        {
          "indexed": true,
          "internalType": "address",
          "name": "owner",
          "type": "address"
        },
        {
          "indexed": true,
          "internalType": "address",
          "name": "spender",
          "type": "address"
        },
        {
          "indexed": false,
          "internalType": "uint256",
          "name": "value",
          "type": "uint256"
        }
      ],
      "name": "Approval",
      "type": "event"
    },
    {
      "anonymous": false,
      "inputs": [],
      "name": "EIP712DomainChanged",
      "type": "event"
    },
    {
      "anonymous": false,
      "inputs": [
        {
          "indexed": true,
          "internalType": "address",
          "name": "previousOwner",
          "type": "address"
        },
        {
          "indexed": true,
          "internalType": "address",
          "name": "newOwner",
          "type": "address"
        }
      ],
      "name": "OwnershipTransferred",
      "type": "event"
    },
    {
      "anonymous": false,
      "inputs": [
        {
          "indexed": true,
          "internalType": "address",
          "name": "from",
          "type": "address"
        },
        {
          "indexed": true,
          "internalType": "address",
          "name": "to",
          "type": "address"
        },
        {
          "indexed": false,
          "internalType": "uint256",
          "name": "value",
          "type": "uint256"
        }
      ],
      "name": "Transfer",
      "type": "event"
    },
    {
      "inputs": [],
      "name": "DOMAIN_SEPARATOR",
      "outputs": [
        {
          "internalType": "bytes32",
          "name": "",
          "type": "bytes32"
        }
      ],
      "stateMutability": "view",
      "type": "function"
    },
    {
      "inputs": [
        {
          "internalType": "address",
          "name": "owner",
          "type": "address"
        },
        {
          "internalType": "address",
          "name": "spender",
          "type": "address"
        }
      ],
      "name": "allowance",
      "outputs": [
        {
          "internalType": "uint256",
          "name": "",
          "type": "uint256"
        }
      ],
      "stateMutability": "view",
      "type": "function"
    },
    {
      "inputs": [
        {
          "internalType": "address",
          "name": "spender",
          "type": "address"
        },
        {
          "internalType": "uint256",
          "name": "value",
          "type": "uint256"
        }
      ],
      "name": "approve",
      "outputs": [
        {
          "internalType": "bool",
          "name": "",
          "type": "bool"
        }
      ],
      "stateMutability": "nonpayable",
      "type": "function"
    },
    {
      "inputs": [
        {
          "internalType": "address",
          "name": "account",
          "type": "address"
        }
      ],
      "name": "balanceOf",
      "outputs": [
        {
          "internalType": "uint256",
          "name": "",
          "type": "uint256"
        }
      ],
      "stateMutability": "view",
      "type": "function"
    },
    {
      "inputs": [
        {
          "internalType": "uint256",
          "name": "value",
          "type": "uint256"
        }
      ],
      "name": "burn",
      "outputs": [],
      "stateMutability": "nonpayable",
      "type": "function"
    },
    {
      "inputs": [
        {
          "internalType": "address",
          "name": "account",
          "type": "address"
        },
        {
          "internalType": "uint256",
          "name": "value",
          "type": "uint256"
        }
      ],
      "name": "burnFrom",
      "outputs": [],
      "stateMutability": "nonpayable",
      "type": "function"
    },
    {
      "inputs": [],
      "name": "decimals",
      "outputs": [
        {
          "internalType": "uint8",
          "name": "",
          "type": "uint8"
        }
      ],
      "stateMutability": "view",
      "type": "function"
    },
    {
      "inputs": [],
      "name": "eip712Domain",
      "outputs": [
        {
          "internalType": "bytes1",
          "name": "fields",
          "type": "bytes1"
        },
        {
          "internalType": "string",
          "name": "name",
          "type": "string"
        },
        {
          "internalType": "string",
          "name": "version",
          "type": "string"
        },
        {
          "internalType": "uint256",
          "name": "chainId",
          "type": "uint256"
        },
        {
          "internalType": "address",
          "name": "verifyingContract",
          "type": "address"
        },
        {
          "internalType": "bytes32",
          "name": "salt",
          "type": "bytes32"
        },
        {
          "internalType": "uint256[]",
          "name": "extensions",
          "type": "uint256[]"
        }
      ],
      "stateMutability": "view",
      "type": "function"
    },
    {
      "inputs": [],
      "name": "name",
      "outputs": [
        {
          "internalType": "string",
          "name": "",
          "type": "string"
        }
      ],
      "stateMutability": "view",
      "type": "function"
    },
    {
      "inputs": [
        {
          "internalType": "address",
          "name": "owner",
          "type": "address"
        }
      ],
      "name": "nonces",
      "outputs": [
        {
          "internalType": "uint256",
          "name": "",
          "type": "uint256"
        }
      ],
      "stateMutability": "view",
      "type": "function"
    },
    {
      "inputs": [],
      "name": "owner",
      "outputs": [
        {
          "internalType": "address",
          "name": "",
          "type": "address"
        }
      ],
      "stateMutability": "view",
      "type": "function"
    },
    {
      "inputs": [
        {
          "internalType": "address",
          "name": "owner",
          "type": "address"
        },
        {
          "internalType": "address",
          "name": "spender",
          "type": "address"
        },
        {
          "internalType": "uint256",
          "name": "value",
          "type": "uint256"
        },
        {
          "internalType": "uint256",
          "name": "deadline",
          "type": "uint256"
        },
        {
          "internalType": "uint8",
          "name": "v",
          "type": "uint8"
        },
        {
          "internalType": "bytes32",
          "name": "r",
          "type": "bytes32"
        },
        {
          "internalType": "bytes32",
          "name": "s",
          "type": "bytes32"
        }
      ],
      "name": "permit",
      "outputs": [],
      "stateMutability": "nonpayable",
      "type": "function"
    },
    {
      "inputs": [],
      "name": "renounceOwnership",
      "outputs": [],
      "stateMutability": "nonpayable",
      "type": "function"
    },
    {
      "inputs": [],
      "name": "symbol",
      "outputs": [
        {
          "internalType": "string",
          "name": "",
          "type": "string"
        }
      ],
      "stateMutability": "view",
      "type": "function"
    },
    {
      "inputs": [],
      "name": "totalSupply",
      "outputs": [
        {
          "internalType": "uint256",
          "name": "",
          "type": "uint256"
        }
      ],
      "stateMutability": "view",
      "type": "function"
    },
    {
      "inputs": [
        {
          "internalType": "address",
          "name": "to",
          "type": "address"
        },
        {
          "internalType": "uint256",
          "name": "value",
          "type": "uint256"
        }
      ],
      "name": "transfer",
      "outputs": [
        {
          "internalType": "bool",
          "name": "",
          "type": "bool"
        }
      ],
      "stateMutability": "nonpayable",
      "type": "function"
    },
    {
      "inputs": [
        {
          "internalType": "address",
          "name": "from",
          "type": "address"
        },
        {
          "internalType": "address",
          "name": "to",
          "type": "address"
        },
        {
          "internalType": "uint256",
          "name": "value",
          "type": "uint256"
        }
      ],
      "name": "transferFrom",
      "outputs": [
        {
          "internalType": "bool",
          "name": "",
          "type": "bool"
        }
      ],
      "stateMutability": "nonpayable",
      "type": "function"
    },
    {
      "inputs": [
        {
          "internalType": "address",
          "name": "newOwner",
          "type": "address"
        }
      ],
      "name": "transferOwnership",
      "outputs": [],
      "stateMutability": "nonpayable",
      "type": "function"
    }
  ],
  "bytecode": "0x6101606040523480156200001257600080fd5b50604051620017e4380380620017e483398101604081905262000035916200045d565b806040518060400160405280600581526020016453656c766160d81b81525080604051806040016040528060018152602001603160f81b8152506040518060400160405280600581526020016453656c766160d81b8152506040518060400160405280600581526020016453454c564160d81b8152508160039081620000bc919062000543565b506004620000cb828262000543565b50620000dd915083905060056200021e565b61012052620000ee8160066200021e565b61014052815160208084019190912060e052815190820120610100524660a0526200017c60e05161010051604080517f8b73c3c69bb8fe3d512ecc4cf759cc79239f7b179b0ffacaa9a75d522b39400f60208201529081019290925260608201524660808201523060a082015260009060c00160405160208183030381529060405280519060200120905090565b60805250503060c052506001600160a01b038116620001b657604051631e4fbdf760e01b8152600060048201526024015b60405180910390fd5b620001c18162000257565b506001600160a01b0381166200020a5760405162461bcd60e51b815260206004820152600d60248201526c4f776e6572206973207a65726f60981b6044820152606401620001ad565b620002168183620002a9565b5050620006a7565b60006020835110156200023e576200023683620002e7565b905062000251565b816200024b848262000543565b5060ff90505b92915050565b600880546001600160a01b038381166001600160a01b0319831681179093556040519116919082907f8be0079c531659141344cd1fd0a4f28419497f9722a3daafe3b4186f6b6457e090600090a35050565b6001600160a01b038216620002d55760405163ec442f0560e01b815260006004820152602401620001ad565b620002e3600083836200032a565b5050565b600080829050601f8151111562000315578260405163305a27a960e01b8152600401620001ad91906200060f565b8051620003228262000660565b179392505050565b6001600160a01b038316620003595780600260008282546200034d919062000685565b90915550620003cd9050565b6001600160a01b03831660009081526020819052604090205481811015620003ae5760405163391434e360e21b81526001600160a01b03851660048201526024810182905260448101839052606401620001ad565b6001600160a01b03841660009081526020819052604090209082900390555b6001600160a01b038216620003eb576002805482900390556200040a565b6001600160a01b03821660009081526020819052604090208054820190555b816001600160a01b0316836001600160a01b03167fddf252ad1be2c89b69c2b068fc378daa952ba7f163c4a11628f55a4df523b3ef836040516200045091815260200190565b60405180910390a3505050565b600080604083850312156200047157600080fd5b825160208401519092506001600160a01b03811681146200049157600080fd5b809150509250929050565b634e487b7160e01b600052604160045260246000fd5b600181811c90821680620004c757607f821691505b602082108103620004e857634e487b7160e01b600052602260045260246000fd5b50919050565b601f8211156200053e576000816000526020600020601f850160051c81016020861015620005195750805b601f850160051c820191505b818110156200053a5782815560010162000525565b5050505b505050565b81516001600160401b038111156200055f576200055f6200049c565b6200057781620005708454620004b2565b84620004ee565b602080601f831160018114620005af5760008415620005965750858301515b600019600386901b1c1916600185901b1785556200053a565b600085815260208120601f198616915b82811015620005e057888601518255948401946001909101908401620005bf565b5085821015620005ff5787850151600019600388901b60f8161c191681555b5050505050600190811b01905550565b60006020808352835180602085015260005b818110156200063f5785810183015185820160400152820162000621565b506000604082860101526040601f19601f8301168501019250505092915050565b80516020808301519190811015620004e85760001960209190910360031b1b16919050565b808201808211156200025157634e487b7160e01b600052601160045260246000fd5b60805160a05160c05160e0516101005161012051610140516110e26200070260003960006108cc0152600061089f015260006107920152600061076a015260006106c5015260006106ef0152600061071901526110e26000f3fe608060405234801561001057600080fd5b50600436106101165760003560e01c806379cc6790116100a257806395d89b411161007157806395d89b411461023a578063a9059cbb14610242578063d505accf14610255578063dd62ed3e14610268578063f2fde38b146102a157600080fd5b806379cc6790146101de5780637ecebe00146101f157806384b0196e146102045780638da5cb5b1461021f57600080fd5b8063313ce567116100e9578063313ce567146101815780633644e5151461019057806342966c681461019857806370a08231146101ad578063715018a6146101d657600080fd5b806306fdde031461011b578063095ea7b31461013957806318160ddd1461015c57806323b872dd1461016e575b600080fd5b6101236102b4565b6040516101309190610e2c565b60405180910390f35b61014c610147366004610e62565b610346565b6040519015158152602001610130565b6002545b604051908152602001610130565b61014c61017c366004610e8c565b610360565b60405160128152602001610130565b610160610384565b6101ab6101a6366004610ec8565b610393565b005b6101606101bb366004610ee1565b6001600160a01b031660009081526020819052604090205490565b6101ab6103a0565b6101ab6101ec366004610e62565b6103b4565b6101606101ff366004610ee1565b6103cd565b61020c6103eb565b6040516101309796959493929190610efc565b6008546040516001600160a01b039091168152602001610130565b610123610431565b61014c610250366004610e62565b610440565b6101ab610263366004610f95565b61044e565b610160610276366004611008565b6001600160a01b03918216600090815260016020908152604080832093909416825291909152205490565b6101ab6102af366004610ee1565b61058d565b6060600380546102c39061103b565b80601f01602080910402602001604051908101604052809291908181526020018280546102ef9061103b565b801561033c5780601f106103115761010080835404028352916020019161033c565b820191906000526020600020905b81548152906001019060200180831161031f57829003601f168201915b5050505050905090565b6000336103548185856105c8565b60019150505b92915050565b60003361036e8582856105da565b610379858585610659565b506001949350505050565b600061038e6106b8565b905090565b61039d33826107e3565b50565b6103a8610819565b6103b26000610846565b565b6103bf8233836105da565b6103c982826107e3565b5050565b6001600160a01b03811660009081526007602052604081205461035a565b6000606080600080600060606103ff610898565b6104076108c5565b60408051600080825260208201909252600f60f81b9b939a50919850469750309650945092509050565b6060600480546102c39061103b565b600033610354818585610659565b834211156104775760405163313c898160e11b8152600481018590526024015b60405180910390fd5b60007f6e71edae12b1b97f4d1f60370fef10105fa2faae0126114a169c64845d6126c98888886104c48c6001600160a01b0316600090815260076020526040902080546001810190915590565b6040805160208101969096526001600160a01b0394851690860152929091166060840152608083015260a082015260c0810186905260e001604051602081830303815290604052805190602001209050600061051f826108f2565b9050600061052f8287878761091f565b9050896001600160a01b0316816001600160a01b031614610576576040516325c0072360e11b81526001600160a01b0380831660048301528b16602482015260440161046e565b6105818a8a8a6105c8565b50505050505050505050565b610595610819565b6001600160a01b0381166105bf57604051631e4fbdf760e01b81526000600482015260240161046e565b61039d81610846565b6105d5838383600161094d565b505050565b6001600160a01b03838116600090815260016020908152604080832093861683529290522054600019811015610653578181101561064457604051637dc7a0d960e11b81526001600160a01b0384166004820152602481018290526044810183905260640161046e565b6106538484848403600061094d565b50505050565b6001600160a01b03831661068357604051634b637e8f60e11b81526000600482015260240161046e565b6001600160a01b0382166106ad5760405163ec442f0560e01b81526000600482015260240161046e565b6105d5838383610a22565b6000306001600160a01b037f00000000000000000000000000000000000000000000000000000000000000001614801561071157507f000000000000000000000000000000000000000000000000000000000000000046145b1561073b57507f000000000000000000000000000000000000000000000000000000000000000090565b61038e604080517f8b73c3c69bb8fe3d512ecc4cf759cc79239f7b179b0ffacaa9a75d522b39400f60208201527f0000000000000000000000000000000000000000000000000000000000000000918101919091527f000000000000000000000000000000000000000000000000000000000000000060608201524660808201523060a082015260009060c00160405160208183030381529060405280519060200120905090565b6001600160a01b03821661080d57604051634b637e8f60e11b81526000600482015260240161046e565b6103c982600083610a22565b6008546001600160a01b031633146103b25760405163118cdaa760e01b815233600482015260240161046e565b600880546001600160a01b038381166001600160a01b0319831681179093556040519116919082907f8be0079c531659141344cd1fd0a4f28419497f9722a3daafe3b4186f6b6457e090600090a35050565b606061038e7f00000000000000000000000000000000000000000000000000000000000000006005610b4c565b606061038e7f00000000000000000000000000000000000000000000000000000000000000006006610b4c565b600061035a6108ff6106b8565b8360405161190160f01b8152600281019290925260228201526042902090565b60008060008061093188888888610bf7565b9250925092506109418282610cc6565b50909695505050505050565b6001600160a01b0384166109775760405163e602df0560e01b81526000600482015260240161046e565b6001600160a01b0383166109a157604051634a1406b160e11b81526000600482015260240161046e565b6001600160a01b038085166000908152600160209081526040808320938716835292905220829055801561065357826001600160a01b0316846001600160a01b03167f8c5be1e5ebec7d5bd14f71427d1e84f3dd0314c0f7b2291e5b200ac8c7c3b92584604051610a1491815260200190565b60405180910390a350505050565b6001600160a01b038316610a4d578060026000828254610a429190611075565b90915550610abf9050565b6001600160a01b03831660009081526020819052604090205481811015610aa05760405163391434e360e21b81526001600160a01b0385166004820152602481018290526044810183905260640161046e565b6001600160a01b03841660009081526020819052604090209082900390555b6001600160a01b038216610adb57600280548290039055610afa565b6001600160a01b03821660009081526020819052604090208054820190555b816001600160a01b0316836001600160a01b03167fddf252ad1be2c89b69c2b068fc378daa952ba7f163c4a11628f55a4df523b3ef83604051610b3f91815260200190565b60405180910390a3505050565b606060ff8314610b6657610b5f83610d7f565b905061035a565b818054610b729061103b565b80601f0160208091040260200160405190810160405280929190818152602001828054610b9e9061103b565b8015610beb5780601f10610bc057610100808354040283529160200191610beb565b820191906000526020600020905b815481529060010190602001808311610bce57829003601f168201915b5050505050905061035a565b600080807f7fffffffffffffffffffffffffffffff5d576e7357a4501ddfe92f46681b20a0841115610c325750600091506003905082610cbc565b604080516000808252602082018084528a905260ff891692820192909252606081018790526080810186905260019060a0016020604051602081039080840390855afa158015610c86573d6000803e3d6000fd5b5050604051601f1901519150506001600160a01b038116610cb257506000925060019150829050610cbc565b9250600091508190505b9450945094915050565b6000826003811115610cda57610cda611096565b03610ce3575050565b6001826003811115610cf757610cf7611096565b03610d155760405163f645eedf60e01b815260040160405180910390fd5b6002826003811115610d2957610d29611096565b03610d4a5760405163fce698f760e01b81526004810182905260240161046e565b6003826003811115610d5e57610d5e611096565b036103c9576040516335e2f38360e21b81526004810182905260240161046e565b60606000610d8c83610dbe565b604080516020808252818301909252919250600091906020820181803683375050509182525060208101929092525090565b600060ff8216601f81111561035a57604051632cd44ac360e21b815260040160405180910390fd5b6000815180845260005b81811015610e0c57602081850181015186830182015201610df0565b506000602082860101526020601f19601f83011685010191505092915050565b602081526000610e3f6020830184610de6565b9392505050565b80356001600160a01b0381168114610e5d57600080fd5b919050565b60008060408385031215610e7557600080fd5b610e7e83610e46565b946020939093013593505050565b600080600060608486031215610ea157600080fd5b610eaa84610e46565b9250610eb860208501610e46565b9150604084013590509250925092565b600060208284031215610eda57600080fd5b5035919050565b600060208284031215610ef357600080fd5b610e3f82610e46565b60ff60f81b881681526000602060e06020840152610f1d60e084018a610de6565b8381036040850152610f2f818a610de6565b606085018990526001600160a01b038816608086015260a0850187905284810360c08601528551808252602080880193509091019060005b81811015610f8357835183529284019291840191600101610f67565b50909c9b505050505050505050505050565b600080600080600080600060e0888a031215610fb057600080fd5b610fb988610e46565b9650610fc760208901610e46565b95506040880135945060608801359350608088013560ff81168114610feb57600080fd5b9699959850939692959460a0840135945060c09093013592915050565b6000806040838503121561101b57600080fd5b61102483610e46565b915061103260208401610e46565b90509250929050565b600181811c9082168061104f57607f821691505b60208210810361106f57634e487b7160e01b600052602260045260246000fd5b50919050565b8082018082111561035a57634e487b7160e01b600052601160045260246000fd5b634e487b7160e01b600052602160045260246000fdfea2646970667358221220529e1a7e114d8562242331d1d8f6833f109686a0540b85a7a4b4b26cfa6a8ffb64736f6c63430008180033",
  "linkReferences": {},
  "deployedLinkReferences": {}
}